:100000000C945D000C9485000C9485000C94850084
:100010000C9485000C9485000C9485000C9485004C
:100020000C9485000C9485000C9485000C9485003C
:100030000C9485000C9485000C9485000C9485002C
:100040000C9443010C9485000C9485000C9485005D
:100050000C9485000C9485000C9485000C9485000C
:100060000C9485000C94850000000007000201003C
:100070000003040600000000000000000102040864
:100080001020408001020408102001020408102002
:10009000040404040404040402020202020203032E
:1000A0000303030300000000250028002B000000CC
:1000B0000000240027002A00B80011241FBECFEF43
:1000C000D8E0DEBFCDBF21E0A4E0B1E001C01D92C9
:1000D000A131B207E1F711E0A0E0B1E0ECE4F7E014
:1000E00002C005900D92A430B107D9F710E0CDE51C
:1000F000D0E004C02197FE010E942B03CC35D1072C
:10010000C9F70E9436010C94A4030C940000A4E0EB
:10011000B0E0EDE8F0E00C94E2028DE00E94CA004D
:1001200062E070E0CE0101960E94C30089819A814D
:10013000AB81BC818093040190930501A0930601DB
:10014000B09307012496E2E00C94FE0284E091E073
:100150000E94C90028EE33E040E050E06AE070E021
:1001600080E090E00E9414014DE00E94CE000895CE
:1001700084E091E00E94BD000895FC01118210828C
:10018000138212820895FC017183608313821282AC
:100190000895089561E00E943C020895CF92DF9295
:1001A000EF92FF92CF93DF931F92CDB7DEB76B0133
:1001B0007C0161E0842F49830E947802C701B60167
:1001C0000E94B20160E04981842F0E947802C70139
:1001D000B6010E94B2010F90DF91CF91FF90EF9096
:1001E000DF90CF900895A4E0B0E0E9EFF0E00C9448
:1001F000E202611571058105910579F09B01AC0161
:1002000069833A834B835C830E948E0329813A8100
:100210004B815C810E94A80203C060E070E0CB01CA
:100220002496E2E00C94FE02CF92DF92EF92FF92CE
:100230000F931F93621773078407950784F489014E
:100240009A016B017C01C901B8016C197D098E0905
:100250009F090E94F3006C0D7D1D8E1D9F1D1F9137
:100260000F91FF90EF90DF90CF9008950E94D801FA
:100270000E948700C0E0D0E00E94A6002097E1F332
:100280000E940000F9CF1F920F920FB60F92112417
:100290002F933F938F939F93AF93BF9380910901C7
:1002A00090910A01A0910B01B0910C0130910801CD
:1002B00023E0230F2D3720F40196A11DB11D05C0A9
:1002C00026E8230F0296A11DB11D209308018093FB
:1002D000090190930A01A0930B01B0930C01809146
:1002E0000D0190910E01A0910F01B09110010196A6
:1002F000A11DB11D80930D0190930E01A0930F01DC
:10030000B0931001BF91AF919F918F913F912F9129
:100310000F900FBE0F901F9018953FB7F8948091E3
:100320000D0190910E01A0910F01B091100126B521
:10033000A89B05C02F3F19F00196A11DB11D3FBF1D
:10034000BA2FA92F982F8827820F911DA11DB11DAB
:10035000BC01CD0142E0660F771F881F991F4A95A7
:10036000D1F70895CF92DF92EF92FF92CF93DF9370
:100370006B017C010E948D01EB01C114D104E104E9
:10038000F10479F00E948D016C1B7D0B683E734077
:10039000A0F381E0C81AD108E108F108C851DC4F88
:1003A000ECCFDF91CF91FF90EF90DF90CF90089549
:1003B000789484B5826084BD84B5816084BD85B540
:1003C000826085BD85B5816085BDEEE6F0E0808107
:1003D00081608083E1E8F0E0108280818260808328
:1003E000808181608083E0E8F0E0808181608083AB
:1003F000E1EBF0E0808184608083E0EBF0E08081DD
:1004000081608083EAE7F0E080818460808380817E
:100410008260808380818160808380818068808326
:100420001092C1000895833081F028F4813099F052
:100430008230A1F008958630A9F08730B9F0843079
:10044000D1F4809180008F7D03C0809180008F77F0
:1004500080938000089584B58F7702C084B58F7D26
:1004600084BD08958091B0008F7703C08091B00063
:100470008F7D8093B0000895CF93DF9390E0FC01CF
:10048000E458FF4F2491FC01E057FF4F84918823EB
:1004900061F190E0880F991FFC01E255FF4FC59173
:1004A000D491FC01EC55FF4FA591B491611109C0A5
:1004B0009FB7F8948881209582238883EC912E231E
:1004C0000BC0623061F49FB7F8943881822F809519
:1004D00083238883EC912E2B2C939FBF06C08FB76C
:1004E000F894E8812E2B28838FBFDF91CF91089558
:1004F0001F93CF93DF93282F30E0F901E859FF4F86
:100500008491F901E458FF4FD491F901E057FF4F6E
:10051000C491CC23C9F0162F81110E941302EC2F35
:10052000F0E0EE0FFF1FEC55FF4FA591B4918FB790
:10053000F894111105C09C91ED2FE095E92302C0BC
:10054000EC91ED2BEC938FBFDF91CF911F9108952C
:10055000052E97FB1EF400940E94BF0257FD07D0A2
:100560000E94090307FC03D04EF40C94BF0250957F
:100570004095309521953F4F4F4F5F4F089590958F
:100580008095709561957F4F8F4F9F4F08950E9482
:100590003103A59F900DB49F900DA49F800D911DD8
:1005A000112408952F923F924F925F926F927F9203
:1005B0008F929F92AF92BF92CF92DF92EF92FF9273
:1005C0000F931F93CF93DF93CDB7DEB7CA1BDB0B1F
:1005D0000FB6F894DEBF0FBECDBF09942A883988C4
:1005E00048885F846E847D848C849B84AA84B984CB
:1005F000C884DF80EE80FD800C811B81AA81B981D7
:10060000CE0FD11D0FB6F894DEBF0FBECDBFED01EA
:100610000895A1E21A2EAA1BBB1BFD010DC0AA1F43
:10062000BB1FEE1FFF1FA217B307E407F50720F05B
:10063000A21BB30BE40BF50B661F771F881F991FD6
:100640001A9469F760957095809590959B01AC011F
:10065000BD01CF010895EE0FFF1F0590F491E02D2D
:100660000994A29FB001B39FC001A39F700D811D8B
:100670001124911DB29F700D811D1124911D0895AB
:100680008F929F92AF92BF92CF92DF92EF92FF92A2
:10069000CF93DF93EC01688179818A819B81611519
:1006A00071058105910521F464E279ED8BE597E010
:1006B0002DE133EF41E050E00E94A80249015A01C8
:1006C0009B01AC01A7EAB1E40E94C7026B017C0167
:1006D000ACEEB4EFA50194010E949F03DC01CB01B5
:1006E0008C0D9D1DAE1DBF1DB7FF03C00197A10955
:1006F000B04888839983AA83BB83BC01CD019F77CF
:10070000DF91CF91FF90EF90DF90CF90BF90AF90AF
:100710009F908F9008950E944003089580E091E09B
:100720000E9440030895609300017093010180933B
:100730000201909303010895B7FF0C94C7020E9431
:0C074000C702821B930B0895F894FFCFB2
:04074C0001000000A8
:00000001FF
